:020000040800F2
:10000000B0060020FD270008392700083B2700081C
:100010003D2700083F270008412700080000000096
:10002000000000000000000000000000432700085E
:10003000452700080000000047270008492700085E
:100040001728000817280008172800081728000894
:100050001728000817280008172800081728000884
:100060001728000817280008172800081728000874
:100070001728000817280008172800081728000864
:100080001728000817280008172800081728000854
:100090001728000817280008172800081728000844
:1000A0001728000817280008172800081728000834
:1000B0001728000817280008172800081728000824
:1000C0001728000817280008172800081728000814
:1000D000172800084D2700081728000817280008CF
:1000E00017280008172800081728000817280008F4
:1000F00017280008172800081728000817280008E4
:1001000017280008172800081728000817280008D3
:1001100017280008172800081728000817280008C3
:1001200017280008172800081728000817280008B3
:1001300017280008172800081728000817280008A3
:100140001728000817280008172800081728000893
:100150001728000817280008172800081728000883
:100160001728000817280008172800081728000873
:100170001728000817280008732700081728000808
:10018000172800081728000800F002F800F047F8C8
:100190000AA090E8000C82448344AAF10107DA45E2
:1001A00001D100F03CF8AFF2090EBAE80F0013F0ED
:1001B000010F18BFFB1A43F001031847A4490000C0
:1001C000C4490000103A24BF78C878C1FAD8520751
:1001D00024BF30C830C144BF04680C6070470000C1
:1001E0000023002400250026103A28BF78C1FBD840
:1001F000520728BF30C148BF0B607047642903F025
:100200003587782903F06E87632904F06080002029
:1002100070471FB504F0EAF81FBD10B510BD04F01B
:10022000ABF81146FFF7F5FF00F010F804F0C9F83D
:1002300003B4FFF7F2FF03BC02F069FA01B5764898
:100240000099816081680029FCD108BD73484FF492
:100250007A750024006886B0B0FBF5F1B1F1807FBB
:1002600045D221F07F414FF0E020491E41616C4AA8
:10027000F02182F8141D002787610721016102A87F
:1002800003F0F0FA02F0E6F9664E0298B0FBF6F1E0
:1002900065A003F06DFE0398B0FBF6F166A003F0D5
:1002A00067FE0498B0FBF6F166A003F061FE0598C6
:1002B000B0FBF6F166A003F05BFE00F0F0FC4FF43B
:1002C000784002F03FF865A003F052FE73A003F0FF
:1002D0004FFE00F0A2FB58B174A003F049FE01A844
:1002E00000F0C4FB01A800F0C1FB18B115E0FEE767
:1002F00074A0F2E79DF804107F2959D09DF80500FD
:10030000A22855D09DF80600732851D09DF807000B
:1003100076284DD071A003F02BFE46F26801112023
:1003200004F05CF80021084601F0EEFF02F051F9FC
:100330000121704802F037FC012002F02DFB012062
:1003400002F035FB8021712000F068F900283AD0D6
:1003500069A003F00DFE2846FFF770FF0021712011
:1003600000F05CF9002830D069A003F001FEA94636
:10037000294E6E4D4FF005084846FFF75FFF306885
:1003800045F82400641CE4B23760052CF4D1D5E9AB
:1003900000010844D5E902121144084429690144C6
:1003A000B1FBF8F162A0716003F0E2FD0024E3E725
:1003B0009DF8060000909DF807309DF805205FA08D
:1003C00003F0D6FDA9E765A0C3E769A0CDE7124811
:1003D0008168002902D08168491E816070471CB580
:1003E0000121082003F0A2FA8020009001208DF85E
:1003F000040000208DF8060003218DF80510614CE3
:100400008DF807006946204602F03AFF8021204619
:1004100002F09DFF1CBD000000000020280000200D
:100420000FE000E040420F000D0A535953434C4B7C
:100430003A25644D0D0A000048434C4B3A25644D63
:100440000D0A000050434C4B313A25644D0D0A0013
:1004500050434C4B323A25644D0D0A000D0A0D0AEB
:1004600057656C636F6D6520746F205761766553B7
:10047000686172652053544D333246322073657281
:10048000696573204D435520426F617264204F703F
:10049000656E3230375A0D0A000000004F5637366D
:1004A000373020496E69742E2E0D0A004F563736AC
:1004B000373020496E6974206661696C7321210DA3
:1004C0000A00000043616D65726120486176652015
:1004D000496E69742E2E0D0A000000004F56373603
:1004E0003730204944206973204572726F72210DA4
:1004F0000A00000028640240636F6C6F722074650C
:100500007374206F6E206661696C7321210D0A007F
:10051000636F6C6F722074657374206F66662066FB
:1005200061696C7321210D0A000000003C0000206D
:100530004650533A25640D0A000000004F563736E6
:1005400037302049443A3078257820307825782093
:100550003078257820307825780D0A00636F6C6F2D
:10056000722074657374206F6E2E2E0D0A000000C9
:10057000636F6C6F722074657374206F66662E2EC5
:100580000D0A0000000C024030B587B001210220A6
:1005900003F0CCF90121880503F0E6F98E4D042221
:1005A0000A21284602F0E0FE04220B21284602F030
:1005B000DBFE4FF44060049002208DF8140001210E
:1005C0008DF8161000248DF815408DF8171004A929
:1005D000284602F055FE814D284602F0E7FEFE2037
:1005E000ADF808002815ADF80A000001ADF80C00C0
:1005F000ADF804404BF6FF717948ADF80610009055
:100600000121284602F053FF6946284602F0EAFE1F
:100610000121284602F071FF07B030BD2DE9F047F7
:10062000704D8046894628686C4F0121384602F09B
:1006300048FF2C686C4E01E0641E2DD331463846CD
:1006400003F008F80028F7D000224221384602F0D3
:100650004CFF2C68654E01E0641E1DD331463846C0
:1006600002F0F8FF0028F7D04146384602F0AAFF12
:100670002C685E4EB61C01E0641E0DD33146384630
:1006800002F0E8FF0028F7D04946384602F09AFF0A
:100690002C6804E0641E02D2FF20BDE8F0873146DA
:1006A000384602F0D7FF0028F4D00121384602F086
:1006B00012FF0020F1E72DE9F05F4A4F834689469B
:1006C0003868464E1436308840F480603080DFF859
:1006D0000C810121404602F0F4FE3C68424D01E0ED
:1006E000641E60D32946404602F0B4FF0028F7D0CC
:1006F00000224321404602F0F8FE3C68DFF8ECA0FF
:1007000001E0641E4FD35146404602F0A3FF00288B
:10071000F7D05946404602F055FF3C68DFF8CCA0C0
:100720000AF1020A01E0641E3DD35146404602F040
:1007300091FF0028F7D0308840F48060308001219C
:100740004446404602F0C7FE0121204602F0B9FEB1
:10075000B8463F6801E07F1E25D32946204602F0B7
:1007600079FF0028F7D0012243212746204602F0D6
:10077000BCFED8F800404546DFF86C8008F101085F
:1007800001E0641E0FD34146384602F063FF0028A3
:10079000F7D00021384602F0B0FE2C68124D3F35EC
:1007A00004E0641E02D2FF20BDE8F09F29463846CF
:1007B00002F050FF0028F4D00121384602F08BFEF1
:1007C000384602F001FF89F80000308840F480606C
:1007D00030800020E8E7000000040240005800409C
:1007E000A08601000C000020010003008200070029
:1007F0002DE9F04796B00121172003F097F8012169
:10080000084603F09DF8DFF850A30D22042150465E
:1008100002F0AAFD0D220621504602F0A5FDCF4FA1
:100820000D220621384602F09FFD0D220721384691
:1008300002F09AFDDFF828830D220621404602F0DF
:1008400093FD0D220721404602F08EFD0D22082166
:10085000404602F089FD0D220921404602F084FD48
:10086000DFF800930D220021484602F07DFD0D22A5
:100870000121484602F078FD0D220421484602F08D
:1008800073FD10200F9002208DF8400003268DF894
:10089000416000248DF8424001258DF843500FA996
:1008A000504602F0EDFC4FF470700F900FA94046D7
:1008B00002F0E6FCC0200F900FA9384602F0E0FCE1
:1008C00013200F900FA9484602F0DAFC40270FA929
:1008D00050460F9702F0D4FCADF848408020ADF8A8
:1008E0004440ADF84A00ADF84C70ADF84640ADF864
:1008F0004E40ADF8504011A802F003F80121082045
:1009000002F063F80121102002F05FF8012108468F
:1009100002F05BF80121042002F057F8700201F0A8
:100920008DFF4E208DF854008DF855408DF85640BF
:100930008DF8575015A801F086FF0121880502F0B7
:10094000F5FF894F384602F06DF868060090874839
:100950000190874802A981E831002803CDE90640CB
:100960004000089040110990059440020A9004202C
:10097000CDE90C640B90694638460E9402F0DAF823
:1009800016B0BDE8F0871CB5012002F02FFF012151
:10099000084602F0CBFF704C00220821204602F0EE
:1009A000E3FCA115009103218DF8051002218DF8BB
:1009B000041000208DF8060001208DF8070069461C
:1009C000204602F05DFC4FF0E0614FF4C00002F001
:1009D00010FF1CBD1CB50121084602F0A7FF042032
:1009E000009002208DF8050001208DF80400002100
:1009F0008DF806108DF807006946594802F040FC52
:100A0000554C0421204602F0A2FC0A2000F09BF87D
:100A10000421204602F099FC1CBD70B5FFF7B4FD1F
:100A2000FFF7E6FEFFF7AFFF40F6FF76304600F037
:100A30008AF880211220FFF7F1FD60B9304600F0FE
:100A400082F84C4D002405EB4400417815F8140061
:100A5000FFF7E4FD08B1FF2070BD641CE4B2A82CD0
:100A6000F1D3304600F06FF8002070BD38B5044671
:100A700069461C20FFF71FFEB8B99DF800002070E2
:100A800069461D20FFF717FE78B99DF800006070D9
:100A900069460B20FFF70FFE38B99DF80000A070E3
:100AA00069460A20FFF707FE08B1FF2038BD9DF810
:100AB0000000E070002038BD2DE9FC410E460746DD
:100AC000851801EB430469460320FFF7F4FD9DF808
:100AD000000001A900F0C0008DF800003220FFF7EF
:100AE000EAFD9DF8040005F0070100F0C0008DF854
:100AF000040040EAC10107F0070001433220FFF77C
:100B00008DFDC7F3C7011720FFF788FDC5F3C701A7
:100B10001820FFF783FD9DF8001004F0070041EA5C
:100B2000C00106F0070001430320FFF777FDC6F37D
:100B3000C7011920FFF772FDC4F3C7011A20FFF7A0
:100B40006DFDBDE8FC814FF47A7302E01946491E41
:100B5000FDD2401EFAD27047000002400008024059
:100B600000040240001002402864024028000550A2
:100B700000000260F6430008034A02EB0111102254
:100B8000A1F5007103F0DABA464500081CB5012151
:100B9000182002F0CBFE0121084602F0DBFEFF4CDC
:100BA0000C220021204602F0DFFB0C22012120460E
:100BB00002F0DAFB0C220421204602F0D5FB0C22C5
:100BC0000521204602F0D0FB0C220821204602F02D
:100BD000CBFB0C220921204602F0C6FB0C220A2185
:100BE000204602F0C1FB0C220B21204602F0BCFB88
:100BF0000C220E21204602F0B7FB0C220F212046CA
:100C000002F0B2FB02208DF804004CF63371032091
:100C100000918DF8050000218DF806108DF8071061
:100C20006946204602F02CFBDD4C0C2202212046B6
:100C300002F09AFB0C220721204602F095FB0C22C1
:100C40000821204602F090FB0C220921204602F0E8
:100C50008BFB0C220A21204602F086FB0C220B2182
:100C6000204602F081FB0C221146204602F07CFB5C
:100C70000C220D21204602F077FB0C220E2120468B
:100C800002F072FB0C220F21204602F06DFB4FF6A2
:100C9000847100916946204602F0F2FA1CBD2DE9EC
:100CA000FC5F0121082002F041FE4FF001088DF8A1
:100CB00004804FF0000980208DF806904FF0030A61
:100CC000B64C00908DF805A08DF807806946204647
:100CD00002F0D6FA8021204602F039FBB14CFFF732
:100CE00055FF641EFDD201F079FC4FF4967001F0BF
:100CF0009BFC4FF0C041AC4C00200880AB48018801
:100D00006180ABA003F034F960884FF48076A0F5E1
:100D1000134140F207754FF4007B40F23F1725392D
:100D20007DD0C91EFCD008317AD0B0F5134FFBD06E
:100D30004FF40178113974D040F20559B1F5BD6115
:100D400070D0A0F5A851053901D048456BD10920D4
:100D500020700021072003F041FB322001F064FCE9
:100D60004FF48E71122003F039FB0121A42003F00F
:100D700035FB0F21082003F031FB08210A2003F086
:100D80002DFB08210D2003F029FB2946302003F01C
:100D900025FB0721312003F021FB40F203613220C3
:100DA00003F01CFB4FF4E0642146332003F016FBF4
:100DB00040F20221342003F011FB0221352003F020
:100DC0000DFB41F60F71362003F008FB2946372052
:100DD00003F004FB0021382003F000FB0021392040
:100DE00003F0FCFA29463A2003F0F8FA00213B20F0
:100DF00003F0F4FA07213C2003F0F0FA00213D2033
:100E000003F0ECFA322001F00FFC0121072003F07F
:100E1000E5FA0121172003F0E1FA322004E0A4E012
:100E20007BE294E120E3A5E301F0FEFB4FF4BD512A
:100E3000102003F0D3FA40F21721112003F0CEFA6C
:100E40004FF48F71122003F0C9FA4FF47061132030
:100E500003F0C4FA00212A2003F0C0FA0A21292055
:100E600003F0BCFA4FF49F71122003F0B7FA00218F
:100E7000502003F0B3FAEF21512003F0AFFA002124
:100E8000522003F0ABFA3946532003F0A7FA4FF48F
:100E90001C51602003F0A2FA0121612003F09EFAA8
:100EA00000216A2003F09AFA0021802003F096FACC
:100EB0000021812003F092FA0021822003F08EFAB3
:100EC0000021832003F08AFA0021842003F086FAAF
:100ED0000021852003F082FA1321902003F07EFA8E
:100EE0004FF44071922003F079FA0521932003F02A
:100EF00075FA0021952003F071FA0021972003F084
:100F00006DFA0021982003F069FA3146012003F0C0
:100F100065FA2146022003F061FA41F23001032014
:100F200003F05CFA0021042003F058FA00210C20A1
:100F300003F054FA00210F2003F050FA0021202082
:100F400003F04CFA0021212003F048FA2121072068
:100F500003F044FAC82001F067FB6121072003F089
:100F60003DFAC82001F060FBFEE384F8008047F6FC
:100F7000F001E52003F032FA3146012003F02EFAA9
:100F80004FF4E061022003F029FA41F22801032026
:100F900003F024FA0021042014E00000000C0240B9
:100FA00000100240FFFF1F00100000200000026040
:100FB0004C4344206465766963653A202578200DAA
:100FC0000A00000003F00AFA40F20721082003F0AB
:100FD00005FA0021092003F001FA00210A2003F09C
:100FE000FDF900210C2003F0F9F900210D2003F098
:100FF000F5F900210F2003F0F1F90021102003F092
:10100000EDF90721112003F0E9F90021122003F086
:10101000E5F90021132003F0E1F90121072003F095
:10102000DDF9C82001F000FB41F29001102003F02F
:10103000D5F940F22721112003F0D0F9322001F038
:10104000F3FA1F21122003F0C9F9322001F0ECFA63
:101050004FF4A851132003F0C1F92721292003F0F0
:10106000BDF90D212B2003F0B9F9322001F0DCFA93
:101070000021202003F0B2F90021212003F0AEF975
:101080000021302003F0AAF92946312003F0A6F907
:1010900040F20731322003F0A1F95946352003F020
:1010A0009DF90821362003F099F90421372003F037
:1010B00095F90021382003F091F92946392003F0F1
:1010C0008DF902213C2003F089F941F604513D20BD
:1010D00003F084F90021502003F080F9EF21512022
:1010E00003F07CF90021522003F078F939465320AF
:1010F00003F074F94FF42741602003F06FF90121E8
:10110000612003F06BF900216A2003F067F90021E8
:10111000802003F063F90021812003F05FF90021B2
:10112000822003F05BF90021832003F057F90021AE
:10113000842003F053F90021852003F04FF910219A
:10114000902003F04BF94FF4C0619220FEE384F845
:1011500000A041F21401E72003F040F931460120DC
:1011600003F03CF95946022003F038F941F230010E
:10117000032003F033F940F20221082003F02EF996
:101180000021092003F02AF900210A2003F026F9A2
:1011900000210C2003F022F900210D2003F01EF99C
:1011A00000210F2003F01AF90021102003F016F996
:1011B0000721112003F012F90021122003F00EF98B
:1011C0000021132003F00AF9C82001F02DFA41F2A2
:1011D0009061102003F002F940F22721112003F062
:1011E000FDF8322001F020FA0C21122003F0F6F86D
:1011F000322001F019FA4FF40061132003F0EEF8E9
:101200001121292003F0EAF80B212B2003F0E6F846
:10121000322001F009FA0021202003F0DFF800213C
:10122000212003F0DBF80021302003F0D7F84FF441
:1012300083742146312003F0D1F80021322003F0DD
:10124000CDF84146352003F0C9F841F20A61362055
:1012500003F0C4F82946372003F0C0F821463820AF
:1012600003F0BCF82946392003F0B8F840F20241F7
:101270003C2003F0B3F840F60F413D2003F0AEF8F8
:101280000021502003F0AAF8EF21512003F0A6F826
:101290000021522003F0A2F83946532003F09EF8B3
:1012A0004FF41C51602003F099F80121612003F0F4
:1012B00095F800216A2003F091F80021802003F0C6
:1012C0008DF80021812003F089F80021822003F0AD
:1012D00085F80021832003F081F80021842003F0A9
:1012E0007DF80021852003F079F81021902003F08B
:1012F00075F84FF4C061922003F070F821210720A7
:1013000003F06CF8322001F08FF96121072003F01F
:1013100065F8322001F088F9FEE3002184F800909E
:10132000084603F05BF83146012003F057F84FF40C
:10133000E061022003F052F841F21801032003F0AB
:101340004DF80021042003F049F840F20221082062
:1013500003F044F80021092003F040F800210A209E
:1013600003F03CF801210C2003F038F800210D2097
:1013700003F034F800210F2003F030F8642001F06E
:1013800053F940F20111072003F028F8642001F01E
:101390004BF94FF48651102003F020F8072111205B
:1013A00003F01CF84FF488742146122003F016F85D
:1013B0004FF43061132003F011F80021292003F0CD
:1013C0000DF844F210012B2003F008F80021502002
:1013D00003F004F8EF21512003F000F8002152201F
:1013E00002F0FCFF3946532002F0F8FF4FF41C5185
:1013F000602002F0F3FF0121612002F0EFFF0021E5
:101400006A2002F0EBFF0021802002F0E7FF0021BC
:10141000812002F0E3FF0021822002F0DFFF0021A3
:10142000832002F0DBFF0021842002F0D7FF00219F
:10143000852002F0D3FF1021902002F0CFFF002181
:10144000922002F0CBFF0121932002F0C7FF21463A
:10145000952002F0C3FF0021972002F0BFFF00217A
:10146000982044E30720EFE30D2020700621282078
:1014700002F0B4FF0121002002F0B0FF0021102093
:1014800002F0ACFF47F2EF21012002F0A7FF4FF47A
:10149000C061022002F0A2FF46F63821032002F0CC
:1014A0009DFF46F67401112002F098FF00210F20E5
:1014B00002F094FF45F208310B2002F08FFF032168
:1014C0000C2002F08BFF0A210D2002F087FF4FF461
:1014D00038510E2002F082FFBE211E2002F07EFF56
:1014E0004FF40041252002F079FF4FF4F04126200F
:1014F00002F074FF7821272002F070FF00214E20B7
:1015000002F06CFF00214F2002F068FF40F6D90185
:10151000122002F063FF0021302002F05FFF4FF441
:101520008271312002F05AFF3146322002F056FF1C
:1015300040F205342146332002F050FF4946342062
:1015400002F04CFF2146352002F048FF29463620A4
:1015500002F044FF611F372002F040FF4FF490512A
:101560003A2002F03BFF4FF400613B2002F036FFCF
:10157000332177E7A0F5094140F2025A40F2023BDD
:1015800089391BD010397CD0A0F5A841083979D011
:10159000A0F58A41313976D0091F75D0472874D01B
:1015A000A0F5EE41833971D04FF0C041672008802B
:1015B000FE4800886080472869D0FCE30520207041
:1015C0000121002002F00AFF322001F02DF84AF636
:1015D000A401032002F002FF322001F025F80021CF
:1015E0000C2002F0FBFE322001F01EF840F60C0148
:1015F0000D2002F0F3FE322001F016F84FF42C51CA
:101600000E2002F0EBFE322001F00EF8B0211E2079
:1016100002F0E4FE322001F007F842F63F310120EB
:1016200002F0DCFE322000F0FFFF4FF4C061022028
:1016300002F0D4FE322000F0F7FF0021102002F06B
:10164000CDFE322000F0F0FF46F27001112002F0D2
:10165000C5FE322000F0E8FF0021052002F0BEFEAA
:10166000322000F0E1FF0021062002F0B7FE322018
:1016700000F0DAFF4EF61C71162002F0AFFE3220A9
:1016800006E0D1E094E137E2DFE2FDE384E3FCE34E
:1016900000F0CAFF0321172002F0A0FE322000F064
:1016A000C3FF40F23311072002F098FE322000F011
:1016B000BBFF00210B2002F091FE322000F0B4FFAE
:1016C00000210F2002F08AFE322000F0ADFF002141
:1016D000412002F083FE322000F0A6FF00214220CC
:1016E00002F07CFE322000F09FFF0021482002F033
:1016F00075FE322000F098FF3946492002F06EFE58
:10170000322000F091FF00214A2002F067FE3220D3
:1017100000F08AFF00214B2002F060FE322000F032
:1017200083FF4FF46F41442002F058FE322000F056
:101730007BFF0021452002F051FE322000F074FFB3
:101740003946462002F04AFE322000F06DFF29465D
:10175000302002F043FE322000F066FF4146312087
:1017600002F03CFE322000E0C3E100F05DFF4146A4
:10177000322002F033FE322000F056FF544651462C
:10178000332002F02BFE322000F04EFF40F20751D2
:10179000342002F023FE322000F046FF414635207F
:1017A00002F01CFE322000F03FFF4146362002F0DE
:1017B00015FE322000F038FF2146372002F00EFEE1
:1017C000322000F031FF5C4659463A2002F006FE16
:1017D000322000F029FF21463B2002F0FFFD32209D
:1017E00000F022FF0021232002F0F8FD322000F05B
:1017F0001BFF0021242002F0F1FD322000F014FF35
:101800004FF40041252002F0E9FD322000F00CFFEA
:1018100000214F2002F0E2FD00214E2002F0DEFD0B
:1018200046F2680111201EE60420207006212820BF
:1018300002F0D4FD0121002002F0D0FD4AF6A4619F
:10184000032002F0CBFD04210C2002F0C7FD0C2187
:101850000D2002F0C3FD4FF420510E2002F0BEFD1A
:10186000B5211E2002F0BAFD43F63F31012002F0FF
:10187000B5FD4FF4C061022002F0B0FD0021102040
:1018800002F0ACFD46F63001112002F0A7FD002168
:10189000052002F0A3FD0021062002F09FFD4EF678
:1018A0001C71162002F09AFD3321072002F096FDEC
:1018B00000210B2002F092FD00210F2002F08EFD8E
:1018C0000021412002F08AFD0021422002F086FD25
:1018D0000021482002F082FD3946492002F07EFDB9
:1018E00000214A2002F07AFD00214B2002F076FD13
:1018F0004FF46F41442002F071FD0021452002F0B9
:101900006DFD3946462002F069FD00214E2002F0AF
:1019100065FD00214F2002F061FD2946302002F0D4
:101920005DFD40F20221312002F058FD4146322097
:1019300002F054FD54465146332002F04FFD40F270
:101940000751342002F04AFD414600E023E23520F1
:1019500002F044FD4146362002F040FD214637208A
:1019600002F03CFD5C4659463A2002F037FD214624
:101970003B2002F033FD0021232002F02FFD002147
:10198000242002F02BFD4FF40041252002F026FD1B
:101990004FF4E041262002F021FD4BF2EB01202024
:1019A00002F01CFD7C2127205DE5000000000260A4
:1019B000082020703146012002F010FD4FF4E06154
:1019C000022002F00BFD41F23001032002F006FD7F
:1019D0000021042002F002FD40F20721082002F05D
:1019E000FDFC0021092002F0F9FC00210A2002F090
:1019F000F5FC00210C2002F0F1FC00210D2002F08A
:101A0000EDFC00210F2002F0E9FC322000F00CFE7A
:101A100040F20111072002F0E1FC322000F004FE48
:101A200041F2B061102002F0D9FC0121112002F036
:101A3000D5FC0121172002F0D1FC4FF49C7112203B
:101A400002F0CCFC4FF40061132002F0C7FC092126
:101A5000292002F0C3FC09212A2002F0BFFC00214A
:101A6000A42002F0BBFC0021502002F0B7FCEF21C3
:101A7000512002F0B3FC0021522002F0AFFC3946A5
:101A8000532002F0ABFC4FF41C51602002F0A6FC86
:101A90000321612002F0A2FC00216A2002F09EFCDA
:101AA0000021802002F09AFC0021812002F096FCA7
:101AB0000021822002F092FC0021832002F08EFCA3
:101AC0000021842002F08AFC0021852002F086FC9F
:101AD0001321902002F082FC0021922002F07EFC73
:101AE0000321932002F07AFC4FF48871952002F0D4
:101AF00075FC40F27311B5E407202070012100202D
:101B000002F06CFC4FF4C561102002F067FC062166
:101B1000122002F063FC00E0F2E140F632211320D3
:101B200002F05CFC4021112002F058FC50211520ED
:101B300002F054FC1621122002F050FC322000F07A
:101B400073FD45F26061102002F048FC322000F085
:101B50006BFD42F64E21132002F040FC314601207D
:101B600002F03CFC4FF44071022002F037FC41F2DD
:101B70003001032002F032FC40F20221082002F082
:101B80002DFC00210A2002F029FC0021302002F067
:101B900025FC40F20241312002F020FC4FF4837119
:101BA000322002F01BFC4FF4E061332002F016FCFF
:101BB0004FF48271342002F011FC40F201313520E3
:101BC00002F00CFC2946362002F008FC40F20531F8
:101BD000372002F003FC4FF40271382002F0FEFBC4
:101BE00040F60B71392002F0F9FB322000F01CFDA9
:101BF0000221412002F0F2FB4FF41C51602002F060
:101C0000EDFB0121612002F0E9FB40F21911902067
:101C100002F0E4FB4FF48571922002F0DFFB042117
:101C2000932002F0DBFB3146A02002F0D7FB3220EC
:101C300000F0FAFC40F23311072002F0CFFB322013
:101C400000F0F2FC0021A02057E30C20207030218E
:101C5000152002F0C3FB10219A2002F0BFFB2021C7
:101C6000112002F0BBFB43F22841102002F0B6FB2A
:101C70000221122002F0B2FB41F23801132002F0DF
:101C8000ADFB282000F0D0FC1221084602F0A6FB94
:101C9000282000F0C9FC43F22041102002F09EFBF6
:101CA00043F24501132002F099FB462000F0BCFCF2
:101CB0000021302002F092FB40F20241312002F07C
:101CC0008DFB40F20731322002F088FB4FF4417166
:101CD000332002F083FB0421342002F07FFB40F22A
:101CE0000141352002F07AFB2946362002F076FBCE
:101CF00040F20531372002F071FB4FF4C2642146F7
:101D0000382002F06BFB2146392002F067FB314698
:101D1000012002F063FB4FF44071022002F05EFBF1
:101D200041F23001032002F059FB40F6080108207F
:101D300002F054FB08210A2002F050FB4FF41C5122
:101D4000602002F04BFB0121612002F047FB4FF4C1
:101D50009F71902002F042FB3146922002F03EFB40
:101D60003146932002F03AFB4FF44051A02002F09C
:101D700035FB1021A32002F031FB0121072002F0E6
:101D80002DFB2121072002F029FB2321072002F04F
:101D900025FB33210720B1E0062020700121FF2020
:101DA00002F01CFB0821F32002F018FB3146012051
:101DB00002F014FB00E0A2E24FF4E061022002F026
:101DC0000DFB41F23001032002F008FB59460820C8
:101DD00002F004FB40F20721082002F0FFFA002184
:101DE000092002F0FBFA00210A2002F0F7FA002194
:101DF000102002F0F3FA0521112002F0EFFA002181
:101E0000122002F0EBFA0021132002F0E7FA322050
:101E100000F00AFC41F2B021102002F0DFFA32207B
:101E200000F002FC0721112002F0D8FA322000F065
:101E3000FBFB8B21122002F0D1FA322000F0F4FBE0
:101E40004FF4B851132002F0C9FA322000F0ECFB35
:101E50002221292002F0C2FA0021302002F0BEFA2D
:101E60002946312002F0BAFA4946322002F0B6FA89
:101E700040F20711352002F0B1FA0821362002F0B5
:101E8000ADFA0021372001E03DE01CE102F0A6FAA6
:101E900040F202242146382002F0A0FA4FF4837168
:101EA000392002F09BFA21463C2002F097FA4FF4C9
:101EB00081613D2002F092FA322000F0B5FB002152
:101EC000502002F08BFAEF21512002F087FA002116
:101ED000522002F083FA3946532002F07FFA4FF481
:101EE0002741602002F07AFA0121612002F076FA9F
:101EF0003321902002F072FA0B212B2002F06EFAAF
:101F000040F23311F7E50A2020700021EA2002F0A8
:101F100065FA2021EB2002F061FA0C21EC2002F09E
:101F20005DFAC421ED2002F059FA4021E82002F0C8
:101F300055FA3821E92002F051FA0121F12002F08E
:101F40004DFA1021F22002F049FAA321272002F0D5
:101F500045FA0121402002F041FA0021412002F01F
:101F60003DFA0021422002F039FA1021432002F00C
:101F700035FA0E21442002F031FA2421452002F0E6
:101F80002DFA0421462002F029FA5021472002F0C0
:101F900025FA0221482002F021FA1321492002F0FB
:101FA0001DFA19214A2002F019FA19214B2002F0DA
:101FB00015FA16214C2002F011FA1B21502002F0D4
:101FC0000DFA3121512002F009FA2F21522002F09E
:101FD00005FA3F21532002F001FA3F21542002F07C
:101FE000FDF93E21552002F0F9F92F21562002F08B
:101FF000F5F97B21572002F0F1F90921582002F070
:10200000EDF90621592002F0E9F906215A2002F0E3
:10201000E5F90C215B2002F0E1F91D215C2002F0C2
:10202000DDF9CC215D2002F0D9F918211B2002F046
:10203000D5F901211A2002F0D1F91521242002F04E
:10204000CDF95021252002F0C9F98B21232002F07F
:10205000C5F93621182002F0C1F90121192002F03A
:10206000BDF90021012002F0B9F988211F2002F0FA
:10207000B5F9322000F0D8FA80211F2002F0AEF925
:10208000322000F0D1FA90211F2002F0A7F932206F
:1020900000F0CAFAD0211F2002F0A0F9322000F08F
:1020A000C3FA0521172002F099F90021362002F029
:1020B00095F93821282002F091F9322000F0B4FA85
:1020C0003C21282019E10B2020700821422002F039
:1020D00085F9B421462002F081F94321472002F01E
:1020E0007DF91321482002F079F94721492002F0B7
:1020F00075F914214A2002F071F936214B2002F0C3
:102100006DF903214C2002F069F946214D2002F0BF
:1021100065F905214E2002F061F910214F2002F0EF
:102120005DF90821502002F059F90A21512002F0EE
:1021300055F90021022002F051F90021032002F09C
:102140004DF90021042002F049F9EF21052002F0A9
:1021500045F90021062002F041F90021072002F094
:102160003DF90121082002F039F93F21092002F050
:1021700035F90A2000F058FA0621012002F02EF964
:10218000C821162002F02AF99521232002F026F911
:102190009521242002F022F9FF21252002F01EF9CA
:1021A0000221272002F01AF90221282002F016F954
:1021B0000221292002F012F902212A2002F00EF950
:1021C00002212C2002F00AF902212D2002F006F94A
:1021D00001213A2002F002F901213B2002F0FEF831
:1021E000F0213C2002F0FAF800213D2002F0F6F840
:1021F000142000F019FA3821352002F0EFF8782188
:10220000362002F0EBF838213E2002F0E7F80F21EB
:10221000402002F0E3F8F021412002F0DFF8002135
:10222000382002F0DBF84921192002F0D7F80A2102
:10223000932002F0D3F80A2000F0F6F92021084696
:1022400002F0CCF803211D2002F0C8F800211E2066
:1022500002F0C4F809211F2002F0C0F853214420E5
:1022600002F0BCF81021452002F0B8F80A2000F076
:10227000DBF904211C2002F0B1F8142000F0D4F99D
:102280008021432002F0AAF8052000F0CDF90A21B0
:102290001B2002F0A3F8282000F0C6F912211B2011
:1022A00002F09CF8282000F0BFF97F21902002F076
:1022B00095F80421262002F091F8282000F0B4F9C6
:1022C0002421262002F08AF82C21262002F086F80C
:1022D000282000F0A9F90821702002F07FF83C21A5
:1022E000262002F07BF80221572002F077F8002127
:1022F000552002F073F80021572002F06FF83220C9
:1023000000F092F9BDE8FC9F10B50446C1F1EF0062
:1023100081B2CC48007805280BD0202002F05EF86E
:102320002146212002F05AF84FF0C04122200880B7
:1023300010BD4E2002F052F82146BDE810404F205B
:1023400002F04CB870B50546BE48002400780A2853
:1023500011D00B280FD000210846FFF7D5FF4FF012
:10236000C04122200880B8484FF496310580641C93
:102370008C42FBD370BD0021022002F02FF8002117
:10238000032002F02BF80021042002F027F8EF21AF
:10239000052002F023F80021062002F01FF800219A
:1023A000072002F01BF80121082002F017F83F2156
:1023B000092002F013F8D2E710B5FFF7A5FF4FF0A0
:1023C000C041222008809F4801789F48091F0929A1
:1023D00017D2DFE801F00505050516160808050007
:1023E0000188008810BD0188C1F3C70201880088F8
:1023F000C908C0F38700C90241EA4010104380B207
:1024000010BD01880088C0F34511C20AC00200EB6C
:1024100041101044F3E710B51446B0F5A07F09D27F
:10242000F02907D2FFF770FF2146BDE810402220B7
:1024300001F0D4BF10BD2DE9F04705469146DDF807
:1024400020A098460C4610464D4501D9A94685B2B4
:102450001846444501D9884684B2A9EB0500A8EB8B
:10246000040100B20EB250B1A6B1B04230DDC0EBF3
:1024700046010FB27100404201EB400825E0524690
:1024800021462846FFF7C7FF641CA4B2A045F6D238
:10249000BDE8F087524621462846FFF7BCFF6D1C79
:1024A000ADB2A945F6D2F3E7524621462846FFF7DA
:1024B000B2FF6D1CADB2002F04DD641CA4B208EBAA
:1024C000070001E007EB460007B24D45ECD11AE0EA
:1024D000C6EB40010FB27100404201EB400910E031
:1024E000524621462846FFF796FF641CA4B2002FEF
:1024F00004DD6D1CADB209EB070001E007EB4600FF
:1025000007B24445ECD1524621462846BDE8F04783
:1025100081E72DE9FF5F894607469B4611466846DD
:10252000FEF72AFB0025EA4600241AF8058009EB8D
:102530000506C4F1070128FA01F0C00707EB040003
:10254000B1B280B201D05A4600E00E9AFFF763FFA5
:10255000641CA4B2082CECD36D1CADB2102DE3D3D7
:10256000BDE8FF9F2DE9F8439946089F16460D46A2
:1025700004464FF49C7816F8012B4B46294620461A
:102580000097FFF7C6FF444502D20834A4B207E023
:10259000E02D4FF0000402D21035ADB200E000256E
:1025A00030780028E7D1BDE8F8832DE9FF411546D2
:1025B0000E4607461C4625A101A80A9A01F0E4FC34
:1025C0002B4601AA314638460094FFF7CBFFBDE801
:1025D000FF814FF0C04122200880704700B597B0BE
:1025E00000201021CDE9020104900902CDE9080183
:1025F00007900FAA00900190CDE90C0206900A9076
:10260000059014210B90CDE90F10CDE91110139016
:10261000149015900E92684600F0A7FB012100204F
:1026200000F038FC17B000BD002240F2754306E010
:102630000021491C89B29942FBD3521C92B28242BA
:10264000F6D3704710000020000002604650533A55
:102650002564000070B586B00121042001F066F900
:102660000121042001F062F90121880401F07CF9C4
:102670002F4E07220A21304600F076FE07220B215A
:10268000304600F071FE3015009002208DF80400F5
:1026900000248DF806408DF8050001258DF80750BF
:1026A0006946304600F0ECFDE80200908DF80650D7
:1026B0008DF807406946304600F0E2FD4FF4E13006
:1026C000ADF80C400290ADF80E40ADF81040ADF8FA
:1026D00014400C20174CADF8120002A9204601F05E
:1026E00024FA0121204601F091FA06B070BD08B528
:1026F00027208DF8000001208DF8010000218DF8C1
:1027000002108DF80300684600F09DF808BD704780
:1027100070B5084D0446C1B2284601F09DFA40212B
:10272000284601F02AFB0028F9D0204670BD0000A1
:1027300000080240004800407047FEE7FEE7FEE761
:10274000FEE7704770477047FDF741BE10B51B4C60
:1027500040F22551204601F01AFB002808D02046FF
:1027600001F07EFA0146BDE8104015A001F000BC62
:1027700010BD10B5082000F047F930B1082000F076
:102780004BF91D480168491C0160102000F03CF91C
:1027900010B1102000F040F9012000F035F910B11F
:1027A000012000F039F9042000F02EF9002804D0AF
:1027B000BDE81040042000F02FB910BD00480040D3
:1027C0000A0D5553415254204879706572746572F0
:1027D0006D696E616C20496E746572727570747388
:1027E0002052656365697665206120776F72643A6F
:1027F0002025630A0D0000000000002009488047E2
:1028000009480047FEE7FEE7FEE7FEE7FEE7FEE7D2
:10281000FEE7FEE7FEE7FEE704480549054A064BEA
:1028200070470000933E000889010008B0000020B6
:10283000B0060020B0020020B00200202849084362
:1028400028490860704730B50F23C2780178012508
:10285000FAB1244A126801F1E02102F4E062C2F503
:10286000E062C2F30722C2F10404D3404278A240DE
:1028700084781C401443220181F80024007800F081
:102880001F018D404009800000F1E020C0F8005198
:1028900030BD01F01F0085404809800000F1E020B4
:1028A000C0F8805130BD104A114001430D48001F4F
:1028B000016070470B4A121D0029116801D00143C5
:1028C00000E08143116070474FF0E021042808695F
:1028D00003D020F004000861704740F00400FAE7DC
:1028E0000000FA050CED00E080FFFF1F4C480021BE
:1028F0000160C1601F2242618161C1610162416268
:10290000704730B546490A6844F201039A430A60A9
:102910000A6840F6F2739A4303884488C5882343C3
:1029200084882C4323430489234344898089234397
:10293000034313430B6030BD00210180418081803F
:10294000C180018141818181704701684FEA314234
:1029500033490A6240684FEA304048627047304964
:102960000028086802D040F0040001E020F00400D4
:1029700008607047C178006861F31F60284988616A
:10298000704727490028086802D040F0080001E09D
:1029900020F008000860704721490028086802D02C
:1029A00040F4804001E020F48040086070471C49FA
:1029B0000028086802D040F0010001E020F001008A
:1029C000086070471648806A7047154A0029D16828
:1029D00001D0014302E0C04380B20140D1607047A2
:1029E00003460020190B0E4A012906D0022906D001
:1029F0001169194200D0012070479168F9E75168C8
:102A0000F7E7074948617047054902460020096910
:102A1000114200D001207047014948617047000011
:102A2000000005502DE9F043016821F0010101602B
:102A30000021016041608160C1600161212141612B
:102A4000B849B84A3D251039904202D18D60BDE8A1
:102A5000F083B44A4FF474661832904201D18E600C
:102A6000F5E7B04A4FF474173032904201D18F60CD
:102A7000EDE7AC4A4FF0746C4832904202D1C1F895
:102A800008C0E4E7A74BA84A6033984201D1CA6066
:102A9000DDE7A44CA54B7834A04201D1CB60D6E74A
:102AA000DFF88082A24C08F19008404501D1CC604B
:102AB000CDE7DFF870824FF03D5908F1A808404596
:102AC00002D1C1F80C90C2E79A49DFF86882083950
:102AD000404501D10D60BAE7964D1835A84201D1A5
:102AE0000E60B4E7934D3035A84201D10F60AEE7D8
:102AF000904D4835A84202D1C1F800C0A7E78D4DDE
:102B00008C496035091FA84201D10A609FE7894AB4
:102B10007832904201D10B6099E7864A9032904218
:102B200001D10C6093E7834AA83290428FD1C1F85B
:102B300000908CE730B503687F4ACC6813400A6880
:102B40002243D1E905452C432243CC6922430C6A38
:102B500022434C6A22438C6A22434C6B22438C6B87
:102B600022431A430260426922F00703D1E90B2491
:102B700022431A4342610A6942604A688260896856
:102B8000C16030BD0021016041608160C1600161B0
:102B900041618161C161016241628162C16201631F
:102BA0004163816370470029016802D041F001014F
:102BB00001E021F00101016070470029016802D0A5
:102BC00041F4004101E021F4004101607047002917
:102BD000016802D041F0200101E021F020010160F4
:102BE000704741607047406880B27047002A0268B1
:102BF00002D042F4002201E022F4002202600161CE
:102C000070470029016802D041F4802101E021F4DD
:102C10008021016070470AB101617047C16070474F
:102C2000014600200968090300D5012070470146CC
:102C300000200968C90700D001207047406900F0F2
:102C40003800704702463B4B00209A4202D2354A78
:102C5000103A01E0374A103A8B0001D5526800E083
:102C60001268364B1A400A4200D001207047314AA0
:102C7000904202D22B48103801E02E4810382F4ADB
:102C80008B0001EA020101D5C16070478160704785
:102C90000B0607D5436912B143F0800301E023F02E
:102CA00080034361802908D0002A026801F01E01D8
:102CB00001D00A4300E08A430260704730B51D4AE4
:102CC0000024904202D2174A103A01E0194A103A01
:102CD0001B4B194205D01E2303EAD12503682B4064
:102CE00002E0406900F08003880001D5506800E0F0
:102CF0001068124A1040084201D003B10124204656
:102D000030BD0C4A904202D20648103801E0094812
:102D100010380A4A8B0001EA020101D5C1607047F0
:102D200081607047106002403D000020400F00208D
:102D300000003D20106402403F801CF07D0F7D0F9D
:102D40003C0F3C0F8100A1F1C04140B143F2D200E1
:102D500008606FF070404860C1F8040170474FF0A0
:102D6000204243F2DB001060F3E710B5D0E9011216
:102D70001143D0E903231A43114342691143826985
:102D80001143C2691143026A1143426A1143826AC4
:102D90001143C26A1143026B114302689200A2F10F
:102DA000C04211608168082907D101688900A1F13A
:102DB000C0410A6842F040020A60416BD1E9002339
:102DC00042EA03128B688C891B0243EA04431A43CC
:102DD0000B8A42EA03520B7D896942EA03620A4385
:102DE00001688900A1F1C0414A60C16AB1F5804F14
:102DF00008D000686FF070418000A0F1C040C0F8BA
:102E0000041110BD816BD1E9002342EA03128B68E3
:102E10000C8A1B0243EA04531A430B7D896942EA78
:102E2000036200680A438000A0F1C040C0F804219A
:102E300010BD10B500210222C0E900128160C160FE
:102E4000016141618161D202C161C0E90812520091
:102E5000C0E90A210163436B0F221A60436B5A6079
:102E6000446BFF23A360446BE260446B2261446BBC
:102E70006261446BA161846B2260846B6260846BCD
:102E8000A360836BDA60836B1A61836B5A61806B1A
:102E9000816110BD8000A0F1C0400029016802D00E
:102EA00041F0010101E0C54A11400160704710B5D1
:102EB000182340244FF020414FF0FC32102805D059
:102EC00041F8803F4C608A60CA6010BD0B664C665A
:102ED0008A66CA6610BD30B5D0E901121143D0E947
:102EE00003231A431143426941EA4221826941EABC
:102EF000423141F00804C169D1E9002342EA0322CA
:102F00000B89097B1B0443EA01610A43016AD1E989
:102F1000003543EA05230D89097B2D0445EA01614B
:102F20000B4301684FF02040102904D040F8804F37
:102F30008260C36030BD04668266C36630BD102106
:102F40000160002141608160C16001614161816176
:102F5000C269FC211160C2695160C2699160C26995
:102F6000D160026A1160026A5160026A9160006A6F
:102F7000C16070474FF0204251B1102804D052F880
:102F8000800F40F004000AE0106E40F004000AE0F8
:102F90008A49C91E102804D052F8800F08401060DA
:102FA0007047106E0840106670474FF0204251B1D4
:102FB000102804D052F8800F40F040000AE0106E54
:102FC00040F040000AE07D493F39102804D052F813
:102FD000800F084010607047106E08401066704700
:102FE0004FF02041102802D0D1F894007047486F6C
:102FF00070474FF02040182140F8A01F0021416089
:103000004FF0FC318160C1600161704710B5D0E9BB
:10301000001241EA42218268102343EA42321143FE
:103020004FF0204242F8A01FC168D1E9003443EAC2
:1030300004230C89097B240444EA01610B43936057
:103040000169D1E9003443EA04230C89097B240493
:1030500044EA01610B43D3604069D0E9001341EABF
:1030600003210389007B1B0443EA006001431161D3
:1030700010BD0021016041608160C268FC211160C7
:10308000C2685160C2689160C268D1600269116013
:1030900002695160026991600269D1604269116000
:1030A00042695160426991604069C16070474FF068
:1030B0002041002851F8A00F02D040F0040002E0A7
:1030C0003E4AD21E10400860704710B54FF480741D
:1030D0004FF0204372B1102804D0A04205D153F81C
:1030E000840F04E0586E08430DE053F8A40F084322
:1030F000186010BD102804D0A04206D153F8840FE8
:1031000005E0586E8843586610BD53F8A40F8843F5
:10311000EEE7034600204FF02042102B08D0B3F515
:10312000807F07D0D2F8A4200A4200D00120704747
:10313000526EF9E7D2F88420F6E74FF020421028CB
:1031400007D0B0F5807F08D052F8A40F88431060F4
:103150007047506E88435066704752F8840FF5E709
:10316000034600204FF02042102B0CD0B3F5807F97
:103170000BD0D2F8A4200A4202EAD10102D00029E1
:1031800000D001207047526EF5E7D2F88420F2E7B4
:103190004FF02042102808D0B0F5807F0AD052F8B6
:1031A000A40F20EAD10010607047506E20EAD100D1
:1031B0005066704752F8840FF3E70000FEFF0F00DF
:1031C000714910B5884206D10121084600F0E0FBA4
:1031D000002101204FE06D49884206D101210220E3
:1031E00000F0D6FB0021022045E06949884206D163
:1031F0000121042000F0CCFB002104203BE06549C4
:10320000884206D10121082000F0C2FB00210820DD
:1032100031E06149884206D10121102000F0B8FB5D
:103220000021102027E05D49884206D1012120209D
:1032300000F0AEFB002120201DE05949884206D154
:103240000121402000F0A4FB0021402013E055495B
:10325000884206D10121802000F09AFB00218020C5
:1032600009E0514988420AD184150121204600F025
:103270008FFB00212046BDE8104000F089BB10BD47
:10328000F0B5002201274FF0030C0B6807FA02F596
:103290002B40AB422CD1066853000CFA03F4A64332
:1032A00006600E79D0F800E09E4046EA0E06066001
:1032B0000E79012E01D0022E12D18668A6438660B7
:1032C0004E79D0F808E09E4046EA0E0686604668D1
:1032D000AE43466045688E799640B6B23543456048
:1032E000C568A543C560CC799C40C3681C43C460D5
:1032F000521C102AC9D3F0BD4FF6FF7101600021A6
:10330000017141718171C171704708B541F480321A
:103310000092C261C1610099C161C169C069009038
:1033200008BD0246002012690A4200D00120704701
:10333000006980B270470246002052690A4200D0FC
:1033400001207047406980B2704701837047418314
:1033500070470AB1018370474183704741617047EC
:1033600042694A40426170474B07DB0E9A40C908E8
:1033700010B500EB8100016A0F249C40A14301625B
:10338000016A1143016210BD0000024000040240C6
:1033900000080240000C02400010024000140240ED
:1033A00000180240001C024000200240C94910B52C
:1033B000884202D101214C050AE0C749884202D166
:1033C00001218C0504E0C54988420AD10121CC05C0
:1033D000204600F0FBFA2046BDE81040002100F036
:1033E000F5BA10BD7FB5044680880D4620F03F0633
:1033F000684600F037FABA490298B0FBF1F189B299
:103400000E43A680228822F001022280B54B2A6852
:103410009A421BD85200B0FBF2F080B2042800D2CE
:103420000420491C2184A083208840F001002080D2
:1034300020884FF6F5310840A9886A891143014375
:103440002180A8892989084320817FBDEB88A3F5C5
:103450003F46FF3E0BD002EBC20303EB0212B0FB70
:10346000F2F080B240F48040020506D007E002EBA3
:103470004202B0FBF2F080B2F6E740F001004FF4F8
:10348000967251434FF47A72B1FBF2F140F400406E
:10349000C7E741F288310160002181804BF6FF725D
:1034A000C280018141814FF48041818170470029B0
:1034B000018802D041F0010101E021F00101018009
:1034C00070470029018802D041F4807101E021F4A5
:1034D0008071018070470029018802D041F4007199
:1034E00001E021F400710180704712B141F0010147
:1034F00001E001F0FE01018270470029018802D03D
:1035000041F4806101E021F480610180704782898B
:1035100001F0FE0122F0FE02114381817047002973
:10352000818902D041F0010101E021F00101818196
:1035300070470029018802D041F0400101E021F0EC
:103540004001018070470029018802D041F4004108
:1035500001E0C1F30E01018070470029018803D00A
:1035600021F080010180704741F08001FAE7B1F558
:10357000804F818B02D021F4804101E041F48041F1
:1035800081837047B1F5006F018803D021F4006199
:103590000180704741F40061FAE7B1F5005F0188EE
:1035A00003D021F400510180704741F40051FAE743
:1035B0000029018802D041F0100101E021F0100142
:1035C0000180704701827047008AC0B270470029AD
:1035D000018802D041F4805101E021F48051018042
:1035E0007047B1F5006F018803D021F400610180BC
:1035F000704741F40061FAE70029018802D041F0E8
:10360000200101E021F0200101807047008B000AB9
:1036100070470029818802D041F4006101E021F463
:103620000061818070470029818802D041F4805177
:1036300001E021F480518180704708B50844009072
:10364000008808BD002A828801D00A4300E08A432E
:1036500082807047034600209A8A1B8B42EA03420D
:1036600022F07F42914300D101207047818A008B74
:1036700041EA004121F07F4070470CB5024600202E
:1036800000920A0F21F07F41019202D0009A143279
:1036900002E0009A090C1832009212680A4200D027
:1036A00001200CBDC9438182704710B5034600203C
:1036B0009A884FF4E06404EA11449B8A224021F086
:1036C0007F410B4202D0002A00D0012010BDC94327
:1036D000818270470054004000580040005C004068
:1036E00040420F00A0860100EA48016841F0010154
:1036F0000160E84A0021083211600268E64B1A4076
:103700000260031DE54A1A60026822F4802202600A
:10371000E0480C3001607047DE490022891C0A70C5
:103720000870704702460020510901290CD0022977
:103730000CD0D8497431096802F01F02012393406C
:103740000B4200D001207047D249F4E7D1497031D3
:10375000F1E718B500204FF4A06400903120FFF786
:10376000E1FF0099491C0091A14201D00028F5D049
:103770003120FFF7D7FF002800D0012018BDC54A2F
:10378000116821F0F80141EAC00010607047C44997
:1037900008607047BF49002270310A700A70012822
:1037A00002D0042801D1052008707047BD49086087
:1037B000704741EA82115A0810B5BB4B029C03EBDB
:1037C00002421143014341EA0460B249091D086005
:1037D00010BDB34908667047800140EA0170AD49E9
:1037E000843108607047AE4988667047AC49C86448
:1037F0007047A84B08331A68084322F0EC62104364
:1038000018607047A34B08331A68084322F07842C7
:103810001043186070479F4A0832116821F0030175
:103820000143116070479B480830006800F00C00AD
:103830007047984A0832116821F0F0010143116085
:103840007047944A0832116821F4E0510143116035
:103850007047904A0832116821F4604141EAC00083
:103860001060704770B58B4B083319688F4C11F09E
:103870000C0104D06610042903D0082903D0046089
:103880001BE0066019E0834A121D1168C1F38055E0
:10389000116801F03F0115B1B6FBF1F101E0B4FB95
:1038A000F1F114681268C4F388146143C2F3014251
:1038B000521C5200B1FBF2F1016019680F2202EABA
:1038C00011117B4A545C0168E14041601C68072586
:1038D00005EA9424145D21FA04F484601B6805EA67
:1038E0005333D25CD140C16070BDC0F301210329C4
:1038F00008D1684B083319686E4A21F4F811024068
:103900000A431A60634970310A68C0F30B0002432E
:103910000A6070476349443908607047614940391B
:10392000086070475E49C1F85C017047594A3032FF
:103930000029116801D0014300E081431160704704
:10394000544A34320029116801D0014300E0814318
:10395000116070474F4A38320029116801D0014385
:1039600000E08143116070474A4A403200291168E3
:1039700001D0014300E0814311607047454A443261
:103980000029116801D0014300E0814311607047B4
:10399000404A10320029116801D0014300E0814300
:1039A000116070473B4A14320029116801D001436D
:1039B00000E0814311607047364A183200291168CF
:1039C00001D0014300E0814311607047314A203249
:1039D0000029116801D0014300E081431160704764
:1039E0002C4A24320029116801D0014300E08143B0
:1039F00011607047274A50320029116801D00143F5
:103A000000E0814311607047224A54320029116856
:103A100001D0014300E08143116070471D4A5832D4
:103A20000029116801D0014300E081431160704713
:103A3000184A60320029116801D0014300E0814337
:103A400011607047134A64320029116801D00143A4
:103A500000E08143116070470E4A0D320029117851
:103A600001D0014300E08143117070470948743070
:103A7000016841F08071016070470146054A0020ED
:103A80000C3212680A4200D00120704701490E3101
:103A90000870704700380240FFFFF6FE1030002427
:103AA00000004742800E47420000FFFF0024F40060
:103AB00018000020FFFCFF0FC74910B5884206D14F
:103AC00001211020FFF78CFF0021102028E0C349BE
:103AD000884202D101214C0410E0C149884202D140
:103AE00001218C040AE0BF49884202D10121CC04A3
:103AF00004E0BD4988420AD101210C052046FFF7A8
:103B000065FF2046BDE810400021FFF75FBFB749C1
:103B1000884209D101212020FFF762FF00212020E7
:103B2000BDE81040FFF75CBF10BD7FB50446008ABA
:103B30000D46C98820F4405001432182A08941F2FA
:103B40000C618843A9882A8911436A890243114379
:103B5000A181A08A20F44071A8890843A082684608
:103B6000FFF780FE9C48844202D0A048844201D1E5
:103B7000039800E00298A189090400EBC00101EB61
:103B80000010296801D5490000E08900B0FBF1F080
:103B90006422B0FBF2F109010B096FF018056B43C9
:103BA00000EB8300A3891D044FF0320306D503EB1D
:103BB000C000B0FBF2F000F0070005E003EB0010DE
:103BC000B0FBF2F000F00F00084320817FBD4FF4FE
:103BD0001651016000218180C18001810C22428147
:103BE0008181704710B5028A4C8822F470630A887C
:103BF00022438C88C9880C4322431A43028210BD99
:103C00000021018041808180C18070470029818925
:103C100002D041F4005101E021F40051818170474C
:103C2000028B02F47F420283028B0A4302837047B5
:103C30000029818902D041F4004101E0C1F30E0165
:103C4000818170470029818A02D041F4006101E03E
:103C500021F4006181827047C1F3080181807047BF
:103C60008088C0F308007047028A22F00F020282A7
:103C7000028A0A43028270470029818902D041F0FA
:103C8000020101E021F0020181817047828922F462
:103C90000062828182890A4382817047028A22F00F
:103CA00020020282028A0A43028270470029018AA6
:103CB00002D041F4804101E021F48041018270474B
:103CC000818941F00101818170470029818A02D0F8
:103CD00041F0080101E021F0080181827047028B68
:103CE000D2B20283028B42EA01210183704700298C
:103CF000818A02D041F0200101E021F0200181827F
:103D000070470029818A02D041F0100101E021F0C2
:103D1000100181827047828A22F004028282828AA4
:103D20000A43828270470029818A02D041F0020151
:103D300001E021F0020181827047002A828A01D0CD
:103D40000A4300E08A438282704710B5C1F34213F0
:103D500001F01F040121A140012B07D0022B07D045
:103D60001430002A026805D00A4304E00C30F8E75A
:103D70001030F6E78A43026010BD02460020128828
:103D80000A4200D001207047C9430180704770B5D6
:103D900001F01F0501260024C1F3421306FA05F2C3
:103DA000012B0FD0022B0FD0838A4FEA11210088FC
:103DB000134206FA01F600EA060001D000B1012420
:103DC000204670BD8389F0E7038AEEE70A0A0121E5
:103DD0009140C943018070470010014000440040F9
:103DE00000480040004C00400050004000140140DA
:103DF0000CB50022544900920192086840F48030CA
:103E000008604FF4A063086800F400300190009847
:103E1000401C0090019810B900989842F3D10868AE
:103E2000800334D50120019047484030026842F0B9
:103E3000805202604548026842F480420260424873
:103E4000083002680260026842F4004202600268C0
:103E500042F4A0520260031F3D4A1A600A6842F011
:103E600080720A600A689201FCD53A4940F2056204
:103E70000A60016821F003010160016841F002015C
:103E800001600168C1F381010229FAD10CBD0192E0
:103E90000CBD314810B5016841F4700101602A4839
:103EA000016841F001010160274A002108321160D8
:103EB00002682A4B1A400260031D294A1A600268F0
:103EC00022F48022026020480C300160FFF790FF4E
:103ED00021494FF000608039086010BD70B51A4D5F
:103EE000083528681F4B204910F00C0004D05E10E4
:103EF000042803D0082803D00B601BE00E6019E0F3
:103F0000114A121D1068C0F38054106800F03F0081
:103F100014B1B6FBF0F001E0B3FBF0F013681268E7
:103F2000C3F388135843C2F30142521C5200B0FB42
:103F3000F2F0086028680C4AC0F30310121D105CF0
:103F40000A68C2400A6070BD00380240007000403C
:103F500008544007003C024088ED00E0FFFFF6FEF9
:103F6000103000240024F4002800002070470000D6
:103F70000FB4044910B503AA029800F0B5F910BCBB
:103F80005DF814FB140000200FB41CB5074B06AA03
:103F90007B4469460090059800F077F90020694657
:103FA00000F086F91CBC5DF814FB00001D03000046
:103FB0002DE9F0410E460446002020622046E168CB
:103FC000884730B3252805D0D4E901219047206ADD
:103FD000401CF2E7E168204600278847050018D01A
:103FE000A5F14100192802D820354FF40067324668
:103FF000294620462760FCF701F940B1012804D08A
:10400000F61D26F007060836D8E7361DD6E72846FF
:10401000DAE7206ABDE8F08170B50C460546012A52
:1040200005D02878800600D5EA69002302E0012344
:1040300005E05B1C934202D2E05C0028F9D1A8693C
:10404000E618C01AA861286A184428622846AFF307
:10405000008004E0D5E9012114F8010B9047B44237
:10406000F8D32846AFF3008070BD00002DE9F04181
:104070000646002410687529314616A510D0AFF306
:104080000080002802DA404213A507E031688A0761
:1040900001D512A502E0490704D511A5012401E0CC
:1040A000AFF3008000210A2206F1240709E0B0FBEB
:1040B000F2FCB0FBF2F302FB1C00303078541846DF
:1040C000491C0028F3D123462A463046BDE8F0417A
:1040D00000F07DB8000000002D0000002B00000063
:1040E0002000000070B504460D4621461068AFF36D
:1040F00000802188090502D50F4A7A4402E00E4A61
:104100007A440E32002104F1240305E000F00F068A
:104110000009965D5E54491C0028F7D120780023E1
:10412000000704D5702D02D009B1022311322046B8
:10413000BDE8704000F04BB8380A0000032A40F296
:10414000308010F0030C00F0158011F8013BBCF139
:10415000020F624498BF11F801CB00F8013B38BF51
:1041600011F8013BA2F1040298BF00F801CB38BF5F
:1041700000F8013B11F0030300F0C880083AC0F0DA
:10418000088051F8043B083A51F804CBA0E8081025
:10419000F5E7121D5CBF51F8043B40F8043BAFF358
:1041A0000080D20724BF11F8013B11F801CB48BFB2
:1041B00011F8012B24BF00F8013B00F801CB48BFE8
:1041C00000F8012B704770477047704770472DE922
:1041D000F0470D4699469246044600F124080168CE
:1041E000880604D5E06921F01001216000E001207B
:1041F000A84201DD471B00E00027A1697A1902EB04
:104200000900081AA0612078C00602D42046AFF346
:104210000080002608E0D4E901211AF80600904742
:10422000206A401C761C20624E45F4DB2078C006D4
:104230000AD52046AFF3008006E0D4E90121302002
:104240009047206A401C2062381EA7F10107F4DC69
:1042500007E0D4E9012118F805009047206A401CC6
:104260002062281EA5F10105F3DC2046AFF3008093
:104270002078000602D50220BDE8F0870120FBE788
:1042800001694A1C02610878704700B58FB0CDE91A
:1042900001310021059105497944CDE9031011460A
:1042A0006846FFF785FE0FB000BD0000E5FFFFFF89
:1042B0000A6802F8010B0A60704710B5436913B130
:1042C000AFF3008001E0FFF7A7FE012010BD1278D8
:1042D00000F124010A7000224A700122EDE7116802
:1042E0004FF0FF32E9E70000074B70B50D467B4405
:1042F000FFF7CBFF0446284600F03AF810B14FF024
:10430000FF3070BD204670BD1FE4FFFF10B5203A9E
:10431000C0F00B80B1E81850203AA0E81850B1E87E
:104320001850A0E81850BFF4F5AF5FEA027C24BF34
:10433000B1E81850A0E8185044BF18C918C0BDE82B
:1043400010405FEA827C24BF51F8043B40F8043BF4
:1043500008BF7047D20728BF31F8023B48BF11F8A9
:10436000012B28BF20F8023B48BF00F8012B704703
:10437000007B00F080007047754600F02BF8AE46D9
:1043800005006946534620F00700854618B020B561
:10439000FEF742FABDE820404FF000064FF000075C
:1043A0004FF000084FF0000B21F00701AC46ACE8DD
:1043B000C009ACE8C009ACE8C009ACE8C0098D464A
:1043C000704710B50446AFF300802046BDE81040AA
:1043D000FBF72EBF00487047500000204FF0C0424E
:1043E0001080014801807047000002604FF040706B
:1043F000E1EE100A70473A0C40D0121432801716C2
:10440000180419021A7A03033E0070007100721139
:104410007300A20211017A207B1C7C287D3C7E5512
:104420007F68807681808288838F849685A386AF1B
:1044300087C488D789E813E7000010000D00143105
:10444000A505AB072475256326A59F78A068A10361
:10445000A6DFA7DFA8F0A990AA9413E70E610F8248
:1044600016021E07210222912907330B350B371D37
:104470003871392A3C784D404E20690C6B00741914
:104480008D4F8E008F0090009100920096009A80D0
:10449000B084B10CB20EB382B80A431444F0453470
:1044A00046584728483A59885A885B445C675D49B2
:1044B0005E0E640465206605940495086C0A6D55CB
:1044C0006E116F9F6A400140024013E715184F803C
:1044D000508051005222535E5480589E41083F0044
:1044E000750576E14C0077013DC04B09C960413844
:1044F000564034113B12A489960097309820993089
:104500009A849B299C039D4C9E3F78047901C8F0B6
:10451000790FC8007910C87E790AC880790BC80164
:10452000790CC80F790DC8207909C8807902C8C0F4
:104530007903C8407905C8307926090355005640EB
:104540003B4207081080000000000000000000004F
:10455000000000000000000000183C3C3C1818005F
:1045600018180000000000000066666600000000E9
:1045700000000000000000000036367F3636367F2F
:104580003636000000000018183C666030180C0633
:10459000663C18180000000070D8DA760C18306EEF
:1045A0005B1B0E000000000000386C6C38606F660A
:1045B000663B000000000000001818180000000012
:1045C0000000000000000000000C181830303030EF
:1045D0003018180C00000000003018180C0C0C0CDF
:1045E0000C18183000000000000000361C7F1C363C
:1045F000000000000000000000000018187E1818DD
:1046000000000000000000000000000000000000AA
:104610001C1C0C180000000000000000007E0000C0
:10462000000000000000000000000000000000008A
:104630001C1C0000000000000006060C0C181830BE
:104640003060600000000000001E333737333B3B12
:10465000331E000000000000000C1C7C0C0C0C0C35
:104660000C0C000000000000003C6666060C1830D0
:10467000607E000000000000003C6666061C0666C6
:10468000663C000000000000003030363636667FA1
:104690000606000000000000007E6060607C0606E8
:1046A0000C78000000000000001C18307C66666674
:1046B000663C000000000000007E060C0C1818305C
:1046C0003030000000000000003C6666763C6E66FC
:1046D000663C000000000000003C666666663E0C1A
:1046E00018380000000000000000001C1C00000042
:1046F0001C1C0000000000000000001C1C0000004A
:104700001C1C0C180000000000060C18306030184B
:104710000C06000000000000000000007E007E008B
:104720000000000000000000006030180C060C18AB
:104730003060000000000000003C66660C181800A5
:104740001818000000000000007EC3C3CFDBDBCFE1
:10475000C07F00000000000000183C6666667E66B0
:104760006666000000000000007C6666667C666687
:10477000667C000000000000003C666660606066C9
:10478000663C00000000000000786C6666666666A5
:104790006C78000000000000007E6060607C60605B
:1047A000607E000000000000007E6060607C606051
:1047B0006060000000000000003C666660606E669D
:1047C000663E00000000000000666666667E666663
:1047D0006666000000000000003C18181818181841
:1047E000183C0000000000000006060606060666EB
:1047F000663C0000000000000066666C6C786C6C23
:10480000666600000000000000606060606060603C
:10481000607E000000000000006363776B6B6B63D9
:104820006363000000000000006363737B6F6763D5
:104830006363000000000000003C66666666666612
:10484000663C000000000000007C6666667C6060DC
:104850006060000000000000003C666666666666F8
:10486000663C0C0600000000007C6666667C6C6698
:104870006666000000000000003C666030180C0610
:10488000663C000000000000007E18181818181878
:10489000181800000000000000666666666666661E
:1048A000663C00000000000000666666666666669C
:1048B0003C18000000000000006363636B6B6B3604
:1048C00036360000000000000066663418182C66BA
:1048D000666600000000000000666666663C181808
:1048E0001818000000000000007E06060C1830605A
:1048F000607E000000000000003C3030303030307E
:10490000303030303C000000006060303018180C4F
:104910000C06060000000000003C0C0C0C0C0C0CFB
:104920000C0C0C0C3C0000183C6600000000000061
:104930000000000000000000000000000000000077
:1049400000000000FF000000001818180000000020
:1049500000000000000000000000003C06063E666B
:10496000663E0000000000000060607C66666666CF
:10497000667C0000000000000000003C6660606093
:10498000663C0000000000000006063E66666666A3
:10499000663E0000000000000000003C66667E608D
:1049A000603C000000000000001E3030307E3030DF
:1049B00030300000000000000000003E66666666C1
:1049C000663E06067C0000000060607C66666666E7
:1049D0006666000000000000181800781818181803
:1049E000187E0000000000000C0C003C0C0C0C0CAD
:1049F0000C0C0C0C7800000000606066666C786C33
:104A000066660000000000000078181818181818D2
:104A1000187E0000000000000000007E6B6B6B6BD6
:104A20006B630000000000000000007C66666666A4
:104A300066660000000000000000003C66666666D6
:104A4000663C0000000000000000007C66666666B0
:104A5000667C6060600000000000003E666666667E
:104A6000663E060606000000000000666E7060608C
:104A700060600000000000000000003E60603C0636
:104A8000067C0000000000000030307E3030303006
:104A9000301E0000000000000000006666666666CA
:104AA000663E000000000000000000666666666664
:104AB0003C18000000000000000000636B6B6B6B93
:104AC000363600000000000000000066663C183C1E
:104AD000666600000000000000000066666666660C
:104AE000663C0C18F00000000000007E060C183038
:104AF000607E000000000000000C181818306030C4
:104B00001818180C000000000018181818181818A9
:104B1000181818181800000000301818180C060C87
:104B200018181830000000000071DB8E0000000033
:104B30000000000000003031323334353637383968
:104B400041424344454640305800303132333435D9
:104B5000363738396162636465664030780000003A
:104B6000804B0008000000203C000000C401000849
:104B7000BC4B00083C00002074060000E001000867
:104B800000000000000000000000000010270000EE
:104B9000000000000000000000000000010203040B
:104BA0000102030406070809007A030A0000000056
:0C4BB000000000000102030406070809D1
:040000050800018965
:00000001FF
